:020000040000FA
:060400000A128A11002C13
:10040800FF00030E83160313AA000408AB000A08B2
:10041800AC000A128A11831205168C1E302A240A8F
:10042800403A031D192AA4012316303024078400FA
:10043800A40A1A088317800023140A3A0A128A1198
:10044800031D2B2A840300080D3A0319A3148313F0
:10045800981C302A1812181683160C1E4B2A831261
:100468000C1E4B2A250AA500203A0319462A1030EB
:10047800250784008317000883130319462A990067
:1004880023154B2AA501A315A31283160C12831258
:100498000C1F502A0C1327148312051283162C08DC
:1004A8008A002B0884002A0E8300FF0E7F0E0900A5
:1008000064008316031788018901031305128312FC
:1008100005120825E024B6244025C725D024C2248B
:100820008B170B1783168C1683122A262D274E271B
:08083000152C192C8B131B2C55
:10096C008312FF30A60008008312E9244E30F524D0
:10097C002608F524EF24080027100C1383160C17F7
:10098C009F1785150317881583120313C1300C3874
:10099C009F0008008316FF309200831295019B0183
:1009AC000C3097009D00831607118710831292015B
:1009BC001215080083160716871531309300831221
:1009CC00283094000800831611141118EB2C831294
:1009DC000800831611151119F12C831208008312CB
:1009EC00930083161419F82C8312080083169115A2
:1009FC009119FE2C8312130883161116111A042D4B
:100A0C00831208008316871707170A3099002430C1
:100A1C0098008312903098008C1E162D1A08122DF7
:100A2C00A401A501A30108000C1E302D83160C1A7D
:100A3C00302D8312A5011030840083170008831316
:100A4C00031D2A2D2315A3150319302D9900A31668
:100A5C0083160C16831208008730F6001430F7004A
:100A6C00F60B392DF70B362D08005330F600F60B2C
:100A7C003D2D0800322532253225A601A615261655
:100A8C00A6162615BA242611BA2432252615BA2400
:100A9C002611BA2432252615BA242611BA24322559
:100AAC0026122615BA242611BA243225283066259A
:100ABC00103066250130662532250C30662508007D
:100ACC008312F7000930A6057708F039A60426151D
:100ADC00BA242611BA240930A605770EF039A604DB
:100AEC002615BA242611BA240800F5003030F60079
:100AFC00F701750876060319912DF60AF70A7608A0
:100B0C003A3A031D8B2D4130F6007608473A031D07
:100B1C007F2DF701F70377080800F70030308000CD
:100B2C0064307702031C9D2DF700800A962D840AF1
:100B3C00303080000A307702031CA72DF700800AA2
:100B4C00A02D840A3030770780000800F700303081
:100B5C00800010307702031CB62DF700800AAF2DF1
:100B6C00C6300007031CBC2D07308007840A3030C8
:100B7C0077078000C6300007031CC62D073080079E
:100B8C0008008312A001A101E9243030F524F030D3
:100B9C00F524EF24D12D0000E9243030F524D23097
:100BAC00F524E130F524EF240826F0250800F700A1
:100BBC00E9243030F524E130F5247708F524EF24CE
:100BCC000800E9243130F524831691168312FC2495
:100BDC00EF240800E9243130F5248316911591197E
:100BEC00F52D83121308A00001398316031D9112F1
:100BFC00031991161116111A012E83122018F32DB8
:100C0C00EF240800E9243030F524B430F524EF2427
:100C1C000800F700E9243030F524A530F5247708D6
:100C2C00F524EF240800E9243030F5249630F5241F
:100C3C00EF240800E9243030F5247830F52420081E
:100C4C008039F524EF240800A31C2C2F83120516E1
:100C5C000317320803133D3A031D272FA31A272F1E
:100C6C0003173008443A031D7E2E3108573A031DF2
:100C7C00582E3330840083170008F0017B25F004D4
:100C8C00FF3A0319142FF00E840A00087B25F00498
:100C9C00FF3A03191427700803132614662503174B
:100CAC00840A412E3108433A031D622E031301308E
:100CBC00261066253225142F3108413A031D742E57
:100CCC003308F0017B25F004F00E34087B2570040A
:100CDC000313803826106625322514273108483A2C
:100CEC00031D272F03130230261066253225142FDF
:100CFC003008503A031DA92E3308F0017B25F0046F
:100D0C00F00E34087B25F0043508F1017B25F10445
:100D1C00F10E3030F1053108413A031D9D2E0313BD
:100D2C007008950017080C3971049700142F3108BE
:100D3C00423A031D272F031370089B001D080C3922
:100D4C0071049D00142F3008413A031DB02E03137B
:100D5C009F14272F3008573A031D0C2F3108423AA5
:100D6C00031DBB2E03132114272F3108573A031DE3
:100D7C00CA2E031305302402A2000310A20C10305B
:100D8C002202031CA114272F3108523A031DE62E10
:100D9C0033080313A2017B25A204A20E0317340807
:100DAC0003137B25A204220810302202031C2115F8
:100DBC00031730089000310891002B309200272F38
:100DCC003108463A031DFF2E30089000310891007F
:100DDC002B30920083160313A001A101A201A301E1
:100DEC00A401A501A601A701A801A9018312A115BF
:100DFC00272F31084E3A031DFF2E30089000310882
:100E0C0091002B3092000313A115272F3008423A82
:100E1C00031D272F8B13031383121528031783131A
:100E2C0030089000310891002B3092004F30930025
:100E3C004B3094000D3095000A3096009701031347
:100E4C001A2583120313A401A31005120800271CF2
:100E5C004D2F2710051603174130900091002B30B1
:100E6C0092001330840003131E088317AC25153031
:100E7C00840083161E088312AC25831303170D30D0
:100E8C0097000A309800990103131A2505120800DF
:100E9C008312211C562F05160826F0252110EB2F46
:100EAC00A11C702FA11005163330840022080319E1
:100EBC00EB2F83170008F0017B25F004F00E840A59
:100ECC00000883137B25F00470080F26F025840A94
:100EDC00A2035C2F211D8F2F2111051613308400C6
:100EEC0022080319842F1926F025E130DD25E7258A
:100EFC008317AC258313840AA203762F83170D3036
:100F0C008000840A0A308000840A800183131A2529
:100F1C00FF2FA11DFF2FA1110516F0010130F200CA
:100F2C00F301A03070078400F101A0138316290887
:100F3C00831272020318A52F0018A017AB2F83166B
:100F4C002908831272060319A0172026F025031016
:100F5C00A01B0314800C20086039031DBB2FA01BA1
:100F6C00BB2F83167208F3008312F20A710AF10088
:100F7C00083A031D9B2F700AF000083A031D972FA7
:100F8C0073088316A900031928148312F001F101C8
:100F9C008313A030700784000008F200831713300D
:100FAC00710784007208AC25F00AF10AF10A700886
:100FBC00093A031DCE2F840A0D308000840A0A30B2
:100FCC008000840A80011A25FF2F03178313300831
:100FDC009000310891002B3092004F3093004B3031
:100FEC0094000D3095000A309600970103131A25D2
:040FFC0005120800D2
:04400E00E22BFF3D65
:00000001FF
