:060000000A128A11052816
:10000800042A8312031783178B138F01FF308D0087
:1000180083168C130C1483120C08AA3A0319002AAD
:1000280015288316031383178B13F001F101F201CE
:10003800F501871707170A309900243098008312B2
:1000480090309800322071202B212B202628F01880
:100058003128701E31288301002A08008C1E702860
:100068001A08FA007108031D43287A085A3A031D32
:1000780070287011F011F501F901F7016F28710866
:10008800013A031D51287A08F300023C031864283A
:100098007A083F3C0318682864287108023A031D4F
:1000A80058287A08F900682873087502031C68281C
:1000B8007A08A53A031D642877080319F0156528FE
:1000C8007015F10170147028303075078400F50A36
:1000D8007A088000F706F10A0800701C292903171E
:1000E8007010F201F601F8010330F4000630FB004D
:1000F800701D8028E0301E29F0198428E1301E295F
:100108007908873A03199D287908883A03199D28A0
:100118007908853A0319F5287908803A0319F728E8
:100128007908813A031900297908823A03191329B1
:1001380020293230840000088F000F060319A628F2
:10014800E2301E29840A00088D0007300D050319C6
:10015800AF28E3301E297308153A0319B528E4308F
:100168001E2902300F02031DBB2800300D020318A0
:10017800BF28E5301E297908883A0319DD28840A42
:1001880000088E00840A00088C0083168C170C1552
:1001980055308D00AA308D008C14000000000C1121
:1001A8008C1383120D088D0A0739073C031DC328D9
:1001B800222983168C170C14000000008C1383125C
:1001C800840A0E080006031D2029840A0C0800066C
:1001D800031D20290D088D0A0739073C031DDD285A
:1001E8002229701622290130930000309400003033
:1001F80095000330F4072229203093002130940021
:1002080001309500143096000030970016309800A1
:10021800F830990087309A000830F4072229003016
:100228009300083094000030950010309600043098
:10023800F4072229F40A93001530FB00740A900091
:10024800790891007B089200F01403130800F01C51
:100258004A290C1E4A29720803194229740A72068F
:100268000319442902307407720203184629103012
:10027800760784000008F806F60A48295A30482903
:0E02880078084829A530F0109900F20A080005
:04400E00E22BFF3D65
:0243FE00AA0013
:00000001FF
